:020000040800F2
:10000000000001209D580008155600081B560008E6
:1000100021560008275600082D5600080000000051
:10002000000000000000000000000000335600083F
:1000300041560008000000004F5600085D560008B9
:10004000ED580008ED580008ED580008ED5800087C
:10005000ED580008ED5800086B560008ED580008F0
:10006000ED580008ED580008ED580008ED5800085C
:10007000ED580008ED580008ED58000879560008C2
:100080008D560008ED580008ED580008ED5800089E
:10009000ED580008ED580008ED580008ED5800082C
:1000A000ED580008A1560008ED580008ED5800086A
:1000B000B55600080000000000000000ED580008E0
:1000C000ED5800080000000000000000ED58000896
:1000D00000000000D1560008E556000800000000AE
:1000E000ED580008F956000800000000000000006C
:1000F0000000000000000000000000000000000000
:10010000000000000000000000000000ED580008A2
:100110000000000000000000ED580008ED58000845
:10012000ED580008ED580008ED580008ED5800089B
:10013000ED58000800000000000000000000000072
:10014000ED58000811570008ED580008ED58000858
:10015000ED580008ED580008ED580008ED5800086B
:10016000ED580008ED580008ED58000800000000A8
:10017000ED580008ED5800080000000000000000E5
:0C018000ED580008ED580008ED5800088C
:1001900010B5054C237833B9044B13B10448AFF3C1
:1001A00000800123237010BD940000200000000097
:1001B00074BF000808B5034B1BB103490348AFF3F4
:1001C000008008BD000000009800002074BF0008F7
:1001D000034613F8012B002AFBD1181A0138704787
:1001E00001F0FF01102A2BDB10F0070F08D010F8E8
:1001F000013B013A8B422DD010F0070F42B3F6D1EC
:10020000F0B441EA012141EA014122F007047FF004
:1002100000070023F0E80256083C85EA010586EA5B
:10022000010685FA47F5A3FA87F586FA47F6A5FA97
:1002300087F68EB9EED1F0BC01F0FF0102F00702A3
:1002400032B110F8013B013A83EA010313B1F8D14E
:100250000020704701387047002D06BF354603382F
:10026000073815F0010F07D1013015F4807F02BF68
:10027000013015F4C03F0130F0BC0138704700BFB9
:1002800081F0004102E000BF83F0004330B54FEA47
:1002900041044FEA430594EA050F08BF90EA020FB4
:1002A0001FBF54EA000C55EA020C7FEA645C7FEA47
:1002B000655C00F0E2804FEA5454D4EB5555B8BF6A
:1002C0006D420CDD2C4480EA020281EA030382EADB
:1002D000000083EA010180EA020281EA0303362D6D
:1002E00088BF30BD11F0004F4FEA01314FF4801C40
:1002F0004CEA113102D0404261EB410113F0004F52
:100300004FEA03334CEA133302D0524263EB430308
:1003100094EA050F00F0A780A4F10104D5F1200EA6
:100320000DDB02FA0EFC22FA05F2801841F1000101
:1003300003FA0EF2801843FA05F359410EE0A5F1D5
:1003400020050EF1200E012A03FA0EFC28BF4CF006
:10035000020C43FA05F3C01851EBE37101F00045BC
:1003600007D54FF0000EDCF1000C7EEB00006EEBC9
:100370000101B1F5801F1BD3B1F5001F0CD3490853
:100380005FEA30004FEA3C0C04F101044FEA4452AA
:1003900012F5800F80F09A80BCF1004F08BF5FEA31
:1003A000500C50F1000041EB045141EA050130BD11
:1003B0005FEA4C0C404141EB0101013C28BFB1F523
:1003C000801FE9D291F0000F04BF01460020B1FA6E
:1003D00081F308BF2033A3F10B03B3F120020CDA41
:1003E0000C3208DD02F1140CC2F10C0201FA0CF01F
:1003F00021FA02F10CE002F11402D8BFC2F1200C84
:1004000001FA02F120FA0CFCDCBF41EA0C01904039
:10041000E41AA2BF01EB0451294330BD6FEA040482
:100420001F3C1CDA0C340EDC04F11404C4F120026D
:1004300020FA04F001FA02F340EA030021FA04F37F
:1004400045EA030130BDC4F10C04C4F1200220FAD6
:1004500002F001FA04F340EA0300294630BD21FA14
:1004600004F0294630BD94F0000F83F4801306BFDA
:1004700081F480110134013D4EE77FEA645C18BFCE
:100480007FEA655C29D094EA050F08BF90EA020F65
:1004900005D054EA000C04BF1946104630BD91EA5D
:1004A000030F1EBF0021002030BD5FEA545C05D160
:1004B0004000494128BF41F0004130BD14F580049F
:1004C0003CBF01F5801130BD01F0004545F0FE4113
:1004D00041F470014FF0000030BD7FEA645C1ABF48
:1004E000194610467FEA655C1CBF0B46024650EA7F
:1004F000013406BF52EA033591EA030F41F40021AB
:1005000030BD00BF90F0000F04BF0021704730B530
:100510004FF4806404F132044FF000054FF0000105
:1005200050E700BF90F0000F04BF0021704730B5C6
:100530004FF4806404F1320410F0004548BF40429B
:100540004FF000013EE700BF42004FEAE2014FEAF0
:1005500031014FEA02701FBF12F07F4393F07F4FCB
:1005600081F06051704732F07F4208BF704793F0CE
:100570007F4F04BF41F40021704730B54FF46074E1
:1005800001F0004521F000411CE700BF50EA0102E4
:1005900008BF704730B54FF000050AE050EA01028D
:1005A00008BF704730B511F0004502D5404261EBFD
:1005B00041014FF4806404F132045FEA915C3FF43E
:1005C000D8AE4FF003025FEADC0C18BF03325FEADB
:1005D000DC0C18BF033202EBDC02C2F1200300FA8C
:1005E00003FC20FA02F001FA03FE40EA0E0021FAB1
:1005F00002F11444BDE600BF70B54FF0FF0C4CF49F
:10060000E06C1CEA11541DBF1CEA135594EA0C0F50
:1006100095EA0C0F00F0DEF82C4481EA030621EA8B
:100620004C5123EA4C5350EA013518BF52EA0335C6
:1006300041F4801143F4801338D0A0FB02CE4FF078
:100640000005E1FB02E506F00042E0FB03E54FF0A8
:100650000006E1FB03569CF0000F18BF4EF0010EA0
:10066000A4F1FF04B6F5007F64F5407404D25FEA9C
:100670004E0E6D4146EB060642EAC62141EA55514F
:100680004FEAC52040EA5E504FEACE2EB4F1FD0C91
:1006900088BFBCF5E06F1ED8BEF1004F08BF5FEA0F
:1006A000500E50F1000041EB045170BD06F00046C1
:1006B00046EA010140EA020081EA0301B4EB5C046E
:1006C000C2BFD4EB0C0541EA045170BD41F4801166
:1006D0004FF0000E013C00F3AB8014F1360FDEBF8B
:1006E000002001F0004170BDC4F10004203C35DA67
:1006F0000C341BDC04F11404C4F1200500FA05F3EA
:1007000020FA04F001FA05F240EA020001F000428A
:1007100021F0004110EBD37021FA04F642EB060100
:100720005EEA430E08BF20EAD37070BDC4F10C042A
:10073000C4F1200500FA04F320FA05F001FA04F2EE
:1007400040EA020001F0004110EBD37041F10001DA
:100750005EEA430E08BF20EAD37070BDC4F12005E5
:1007600000FA05F24EEA020E20FA04F301FA05F24D
:1007700043EA020321FA04F001F0004121FA04F2F5
:1007800020EA020000EBD3705EEA430E08BF20EAC5
:10079000D37070BD94F0000F0FD101F000464000FF
:1007A00041EB010111F4801F08BF013CF7D041EA81
:1007B000060195F0000F18BF704703F00046520085
:1007C00043EB030313F4801F08BF013DF7D043EA56
:1007D0000603704794EA0C0F0CEA135518BF95EA0C
:1007E0000C0F0CD050EA410618BF52EA4306D1D193
:1007F00081EA030101F000414FF0000070BD50EAB2
:10080000410606BF1046194652EA430619D094EA3B
:100810000C0F02D150EA013613D195EA0C0F05D125
:1008200052EA03361CBF104619460AD181EA030179
:1008300001F0004141F0FE4141F470014FF0000031
:1008400070BD41F0FE4141F4780170BD70B54FF0CC
:10085000FF0C4CF4E06C1CEA11541DBF1CEA13554C
:1008600094EA0C0F95EA0C0F00F0A7F8A4EB05042E
:1008700081EA030E52EA03354FEA013100F0888025
:100880004FEA03334FF0805545EA131343EA1263EE
:100890004FEA022245EA111545EA10654FEA0026A3
:1008A0000EF000419D4208BF964244F1FD0404F55C
:1008B000407402D25B084FEA3202B61A65EB0305B8
:1008C0005B084FEA32024FF480104FF4002CB6EB75
:1008D000020E75EB030E22BFB61A754640EA0C00F5
:1008E0005B084FEA3202B6EB020E75EB030E22BF35
:1008F000B61A754640EA5C005B084FEA3202B6EB76
:10090000020E75EB030E22BFB61A754640EA9C0034
:100910005B084FEA3202B6EB020E75EB030E22BF04
:10092000B61A754640EADC0055EA060E18D04FEAC2
:10093000051545EA16754FEA06164FEAC30343EA62
:1009400052734FEAC2025FEA1C1CC0D111F4801F2F
:100950000BD141EA00014FF000004FF0004CB6E728
:1009600011F4801F04BF01430020B4F1FD0C88BFC7
:10097000BCF5E06F3FF6AFAEB5EB030C04BFB6EBD2
:10098000020C5FEA500C50F1000041EB045170BDC5
:100990000EF0004E4EEA113114EB5C04C2BFD4EBF2
:1009A0000C0541EA045170BD41F480114FF0000E76
:1009B000013C90E645EA060E8DE60CEA135594EAF2
:1009C0000C0F08BF95EA0C0F3FF43BAF94EA0C0FF5
:1009D0000AD150EA01347FF434AF95EA0C0F7FF46A
:1009E00025AF104619462CE795EA0C0F06D152EABE
:1009F00003353FF4FDAE1046194622E750EA4106A2
:100A000018BF52EA43067FF4C5AE50EA41047FF4B2
:100A10000DAF52EA43057FF4EBAE12E74A0011D264
:100A200012F5001211D20DD56FF47873B3EB625248
:100A30000ED44FEAC12343F0004343EA505323FA54
:100A400002F070474FF00000704750EA013002D1C9
:100A50004FF0FF3070474FF00000704753B94AB96C
:100A6000002908BF00281CBF4FF0FF314FF0FF30B6
:100A700000F074B9ADF1080C6DE904CE00F006F891
:100A8000DDF804E0DDE9022304B070472DE9F0470A
:100A9000089D04468E46002B4DD18A42944669D962
:100AA000B2FA82F252B101FA02F3C2F1200120FA45
:100AB00001F10CFA02FC41EA030E94404FEA1C4893
:100AC000210CBEFBF8F61FFA8CF708FB16E341EA8F
:100AD000034306FB07F199420AD91CEB030306F115
:100AE000FF3080F01F81994240F21C81023E634436
:100AF0005B1AA4B2B3FBF8F008FB103344EA0344DA
:100B000000FB07F7A7420AD91CEB040400F1FF33EE
:100B100080F00A81A74240F207816444023840EA2B
:100B20000640E41B00261DB1D4400023C5E9004364
:100B30003146BDE8F0878B4209D9002D00F0EF80E7
:100B40000026C5E9000130463146BDE8F087B3FA1A
:100B500083F6002E4AD18B4202D3824200F2F98002
:100B6000841A61EB030301209E46002DE0D0C5E905
:100B7000004EDDE702B9FFDEB2FA82F2002A40F051
:100B80009280A1EB0C014FEA1C471FFA8CFE012654
:100B9000200CB1FBF7F307FB131140EA01410EFBF8
:100BA00003F0884208D91CEB010103F1FF3802D29F
:100BB000884200F2CB804346091AA4B2B1FBF7F099
:100BC00007FB101144EA01440EFB00FEA64508D9BC
:100BD0001CEB040400F1FF3102D2A64500F2BB80F9
:100BE0000846A4EB0E0440EA03409CE7C6F1200748
:100BF000B34022FA07FC4CEA030C20FA07F401FA8E
:100C000006F31C43F9404FEA1C4900FA06F3B1FB16
:100C1000F9F8200C1FFA8CFE09FB181140EA01417B
:100C200008FB0EF0884202FA06F20BD91CEB010118
:100C300008F1FF3A80F08880884240F28580A8F170
:100C400002086144091AA4B2B1FBF9F009FB1011C2
:100C500044EA014100FB0EFE8E4508D91CEB010160
:100C600000F1FF346CD28E456AD90238614440EA03
:100C70000840A0FB0294A1EB0E01A142C846A64683
:100C800056D353D05DB1B3EB080261EB0E0101FA0C
:100C900007F722FA06F3F1401F43C5E90071002669
:100CA0003146BDE8F087C2F12003D8400CFA02FCBF
:100CB00021FA03F3914001434FEA1C471FFA8CFECF
:100CC000B3FBF7F007FB10360B0C43EA064300FBBF
:100CD0000EF69E4204FA02F408D91CEB030300F15D
:100CE000FF382FD29E422DD9023863449B1B89B214
:100CF000B3FBF7F607FB163341EA034106FB0EF39D
:100D00008B4208D91CEB010106F1FF3816D28B4249
:100D100014D9023E6144C91A46EA004638E72E4615
:100D2000284605E70646E3E61846F8E64B45A9D20D
:100D3000B9EB020864EB0C0E0138A3E74646EAE77C
:100D4000204694E74046D1E7D0467BE7023B61442A
:100D500032E7304609E76444023842E7704700BF93
:100D600080B400AF144BDB68134A23F08073D36068
:100D7000114BDB68104A43F08073D3600F4B1B6844
:100D80000E4A23F0010313600C4B1B680B4A43F01F
:100D900001031360094B00225A6000BF00BF00BF6F
:100DA000064B5B68002B01D0002300E001231846AE
:100DB000BD465DF8047B7047F0ED00E0001000E0F8
:100DC00080B584B000AF78600D4B5B68FB6006F0C7
:100DD0008FFB03460B4AA2FB03239B0C7A6802FBA2
:100DE00003F37B6000BF064B5A68FB68D21A7B682E
:100DF0009A42F8D300BF00BF1037BD4680BD00BF88
:100E0000001000E083DE1B4380B588B000AF78603F
:100E10000B467B8007F10C0300221A605A609A602F
:100E2000DA601A617B88FB6001233B610023BB61B0
:100E300007F10C031946786805F01AF900BF20374E
:100E4000BD4680BD80B588B000AF78600B467B8022
:100E500007F10C0300221A605A609A60DA601A6186
:100E60007B88FB6000233B6100237B6107F10C035F
:100E70001946786805F0FCF800BF2037BD4680BDF4
:100E800080B500AFFFF76CFF02214FF09040FFF7F5
:100E9000BBFF002202214FF0904005F06BFA44F2B4
:100EA0005060FFF78DFF012202214FF0904005F0C6
:100EB00061FA1E20FFF784FF02214FF09040FFF7F8
:100EC000C1FF00BF80BD80B582B000AF0023FB71C1
:100ED0003220FFF775FF02214FF0904005F032FA03
:100EE0000346002B0FD16420FFF76AFF02214FF069
:100EF000904005F027FA0346002B02D00123FB7136
:100F000001E0FF23FB7100BF02214FF0904005F08C
:100F100019FA0346002BF7D1FB7918460837BD466E
:100F200080BD80B582B000AF0023BB713AE000BF46
:100F300002214FF0904005F005FA0346002BF7D050
:100F40003220FFF73DFF02214FF0904005F0FAF903
:100F50000346002B0ED1BB79C3F10703012202FA2D
:100F600003F35BB2DB435AB297F9073013405BB22D
:100F7000FB710BE0BB79C3F10703012202FA03F313
:100F80005AB297F9073013435BB2FB7100BF0221DD
:100F90004FF0904005F0D6F90346002BF7D1BB790E
:100FA0000133BB71BB79072BC1D9FB7918460837D0
:100FB000BD4680BD80B582B000AF7860FFF760FFAE
:100FC000FFF781FF03461A46234B1A70FFF7A9FF6C
:100FD00003461A46214B1A70FFF7A3FF03461A4631
:100FE0001F4B1A70FFF79DFF03461A461D4B1A70E0
:100FF000FFF797FF03461A461B4B1A70FFF791FF46
:1010000003469AB2194B1A80184B1B881946134B8A
:101010001B781A46124B1B781344124A1278134459
:10102000114A12781344994211D10E4B1B7807EEE6
:10103000903AF8EE677A7B68C3ED007A074B1B782D
:1010400007EE903AF8EE677A7B68C3ED017A00BF4D
:101050000837BD4680BD00BFB6000020B0000020AC
:10106000B1000020B2000020B3000020B400002036
:1010700080B400AFBFF34F8F00BF064BDB6803F4B3
:10108000E0620449044B1343CB60BFF34F8F00BFB2
:1010900000BFFDE700ED00E00400FA0580B483B076
:1010A00000AF0346FB71FB79102B47D801A252F821
:1010B00023F000BFF9100008FD100008011100081E
:1010C00005110008091100080D1100081111000890
:1010D00015110008191100081D1100082111000840
:1010E00025110008291100082D11000831110008F0
:1010F0003511000839110008144B20E0144B1EE094
:10110000144B1CE0144B1AE0144B18E0144B16E07F
:10111000144B14E0144B12E0144B10E0144B0EE08F
:10112000144B0CE0144B0AE0144B08E0144B06E09F
:10113000144B04E0144B02E0144B00E0144B18462F
:101140000C37BD465DF8047B704700BFF8BF000850
:10115000ACBF000800C0000810C0000820C0000894
:1011600034C000084CC000085CC0000868C000081B
:1011700070C0000880C0000898C00008ACC000081B
:10118000C4C00008D0C00008DCC00008ECC00008E3
:10119000F4C0000880B586B002AF78600B467B8053
:1011A0007B68002283F82C207B68002283F82D20A6
:1011B0007B68002283F82E207B68002283F82F2092
:1011C0007B6800229A637B680022DA637B68986AF6
:1011D0007B682C330122194606F0B7FD0346002B2D
:1011E00010D07B6803F649736749184609F0E6FC9E
:1011F0007B6803F6497201230021786800F010FA39
:1012000003F06AFF7B88614AA2FB0323DB0A9BB2DF
:10121000FB737A88FB7B5E4901FB03F313445D4A51
:1012200082FB03121A445211DB17D31ABB737B885B
:10123000DAB2BB7B19461B01CB1A9B00D9B2FB7BF0
:1012400018460001C31A1B01DBB20B44DBB2134486
:101250007B737B68FA7B83F840207B68BA7B83F8DA
:1012600041207B687A7B83F842207B684FF4807250
:101270009A667B68012283F864207B684FF0804285
:101280001A667B684FF000425A657B684FF07062C7
:10129000DA657B68002283F843207B6803F6497097
:1012A000FA7BB97B7B7B00930B463B4909F086FCBC
:1012B0007B6803F6497201230021786800F0B0F9D9
:1012C0007B68012283F874207B6803F649733349F5
:1012D000184609F073FC7B6803F64972012300216C
:1012E000786800F09DF92E4805F0CEF87B68986A82
:1012F0007B6840330022194606F04CFE0346002B63
:1013000001D003F0E9FE7B6803F6497325491846CE
:1013100009F054FC7B6803F64972012300217868C8
:1013200000F07EF904F052F905F076FA0121002070
:1013300005F03EFA7B6803F649731B49184609F02D
:101340003DFC7B6803F6497201230021786800F0B8
:1013500067F904F04DF9154807F016F905F06CFA35
:101360007B6803F649731249184609F027FC7B682D
:1013700003F6497201230021786800F051F900BF9B
:101380001037BD4680BD00BF04C10008C5B3A2919F
:10139000F0F1FFFF898888881CC100085CC1000843
:1013A000B800002070C1000894C10008240100208A
:1013B000B0C1000880B582B000AF7860786802F0F4
:1013C0007DFB7B6803F649730649184609F0F6FB76
:1013D0007B6803F6497201230021786800F020F948
:1013E000FFF746FEC4C1000880B584B000AF786046
:1013F0000223FB730DE0786800F062F840F24C4085
:1014000004F0AEFA786800F076F84FF4967004F0C5
:10141000A7FAFB7B5A1EFA73002BECD1786800F018
:101420006AF87B6803F649730949184609F0C6FB58
:101430007B6803F6497201230021786800F0F0F818
:1014400042F2283004F08CFA00BF1037BD4680BD50
:10145000E0C1000880B584B000AF78600123FB7361
:101460000DE0786800F02CF840F24C4004F078FA77
:10147000786800F040F84FF4967004F071FAFB7B46
:101480005A1EFA73002BECD1786800F034F87B68B0
:1014900003F649730949184609F090FB7B6803F687
:1014A000497201230021786800F0BAF842F228302E
:1014B00004F056FA00BF1037BD4680BDF4C10008E5
:1014C00080B582B000AF78607B6802225A617B6889
:1014D0001A6A7B680C331946104604F0C9FD7B6814
:1014E000186A7B689B8C0022194604F043FF00BFFA
:1014F0000837BD4680BD80B582B000AF78607B689C
:1015000000225A617B681A6A7B680C3319461046C0
:1015100004F0AEFD7B68186A7B689B8C012219463B
:1015200004F028FF00BF0837BD4680BD80B582B0FB
:1015300000AF78607B68D3F8683E1B6A7A68D2F89F
:10154000642E1A607B6803F649707B68D3F8683EA6
:101550001B6A1B681A46074909F030FB7B6803F6D3
:10156000497201230021786800F05AF800BF08375B
:10157000BD4680BD08C2000880B582B000AF78606B
:1015800039603B681A687B68C3F8642E7B6803F691
:1015900049707B68D3F8643E1A46074909F00EFB90
:1015A0007B6803F6497201230021786800F038F85F
:1015B00000BF0837BD4680BD28C2000880B584B092
:1015C00000AF78600123FB737B6803F58053D3F889
:1015D000A4217B6803F58053D3F8A8319A420FD138
:1015E0007B6803F580531A460023C2F8A831002314
:1015F000FB730123084A0121786800F011F805E027
:101600000123064A0021786800F00AF8FB7B18469F
:101610001037BD4680BD00BF50C20008A8C20008F8
:10162000B0B584B000AFF8607A601A460B46FB7222
:101630001346BB72BB7A83F00103DBB2002B08D0E8
:10164000FB6893F8483F83F00103DBB2002B40F0C6
:10165000CE807868FEF7BCFD0346B3F5167F3CD319
:10166000FB6803F64973644A1D4614460FCC286094
:101670006960AA60EB6003CC2861696123782B76EE
:10168000FB6803F58053D3F8A4014FF416730B22C3
:101690005A4907F091FDFB6803F58053D3F8A44144
:1016A000FB6803F64975FB6803F649731846FEF7B5
:1016B0008FFD03469AB24FF416732946204607F071
:1016C0007BFDFB6803F58053D3F8A4014FF4167338
:1016D00001224B4907F070FD8AE0FB6803F649736D
:1016E0007968184609F097FAFB7A002B0BD1FB6852
:1016F00003F58053D3F8A4014FF416730A2241492D
:1017000007F05AFD51E0FB7A012B0BD1FB6803F582
:101710008053D3F8A4014FF416730D223A4907F011
:101720004BFD42E0FB7A022B0BD1FB6803F58053A3
:10173000D3F8A4014FF416730B22304907F03CFD97
:1017400033E0FB7A032B0BD1FB6803F58053D3F80E
:10175000A4014FF416730B222C4907F02DFD24E051
:10176000FB7A042B21D0FB6803F58053D3F8A40146
:101770004FF416730B22214907F01EFDFB6803F599
:101780008053D3F8A4014FF416731122204907F0B7
:1017900013FDFB6803F58053D3F8A4014FF41673CF
:1017A0000122174907F008FD22E0FB6803F580538A
:1017B000D3F8A441FB6803F64975FB6803F6497347
:1017C0001846FEF705FD03469AB24FF416732946F4
:1017D000204607F0F1FCFB6803F58053D3F8A40121
:1017E0004FF4167302220B4907F0E6FC00E000BF3D
:1017F0001037BD46B0BD00BFCCC20008E8C200082B
:10180000F4C20008F8C2000804C3000814C30008AA
:1018100020C3000834C3000880B582B000AF7860F0
:101820007B6803F649730849184609F0C7F97B68D5
:1018300003F64972012304217868FFF7F1FE00BF27
:101840000837BD4680BD00BF38C3000880B584B0EE
:1018500000AFF860B9607A603B6040F2DC5004F0A1
:101860007FF8FB68012283F8482FFB680022C3F849
:10187000682EFB68012283F8602EFB6800221A7034
:10188000FB6842F21072C3F8402BFB6804221A7204
:10189000FB68002283F87D20FB68002283F8742017
:1018A000FB68002283F87C20FB680122A3F87620E5
:1018B000FB6803F65423444A10681860FB6803F57C
:1018C00080531A46BB68C2F8A431FB6803F5805305
:1018D0001A467B68C2F8A831FB6803F580531A46A4
:1018E0003B68C2F8AC31FB68BA691A62FB68BA8B14
:1018F0009A84FB689B8C1A46FB68DA60FB680122BD
:101900001A61FB6800225A61FB6800229A61F8683C
:10191000FFF782FF2D49F868FFF72EFE2C4804F0F0
:1019200064FDF868FFF74AFE034683F00103DBB26B
:10193000002B06D00123274A0221F868FFF770FE2A
:1019400009E00123244A0021F868FFF769FEFB68DB
:10195000012283F87C20FB681A6AFB680C33194665
:10196000104604F085FB03F0EFFF0246FB689A6720
:10197000FB68012283F87C20FB683A6A9A62FB6864
:10198000012283F87520FB6801225A70FB6800224F
:10199000C3F86C2EFB680022C3F8702EFB6800228F
:1019A000C3F8742EFB680022C3F8782EFB6800226F
:1019B000C3F87C2EFB6803F5686300221A7000BF31
:1019C0001037BD4680BD00BF70C3000800F8010895
:1019D000B800002074C300088CC3000880B584B030
:1019E00000AF786003F0B0FF02467B689B6FD31AAC
:1019F000FB607B6803F64973FA685A49184609F098
:101A0000DDF87B6803F64972012300217868FFF74F
:101A100007FE7B6893F87530002B09D103F094FF23
:101A200002467B689B6FD31A41F28732934261D999
:101A300001234D4A04217868FFF7F2FD7B6803F625
:101A400049707B68B3F876301A46484909F0B6F811
:101A50007B6803F64972012300217868FFF7E0FDF7
:101A600003F072FF02467B689A677B6893F8603EDA
:101A700083F00103DBB2002B02D07868FFF79AFCF9
:101A80007B6893F87C3083F00103DBB2002B0DD030
:101A90000123374A02217868FFF7C2FD40F6B830CB
:101AA00003F05EFF7868FFF785FC05E07868FFF7D4
:101AB0009BFC786802F030FA01232E4A03217868F3
:101AC000FFF7AEFD7B68B3F8763001339AB27B68DE
:101AD000A3F876200123284A04217868FFF7A0FDA7
:101AE00003F032FF02467B689A677B68002283F826
:101AF000752032E07B6803F649707B68B3F8763076
:101B00001A461E4909F05AF87B6803F64972012308
:101B100000217868FFF784FD786802F0FDF9012361
:101B2000144A03217868FFF77BFD7B68B3F87630B1
:101B300001339AB27B68A3F8762001230E4A042170
:101B40007868FFF76DFD03F0FFFE02467B689A6739
:101B50007B68002283F8752000BF00BF1037BD46A8
:101B600080BD00BFA0C30008F4C20008B0C30008D5
:101B7000DCC300080CC4000818C400081CC400081A
:101B8000B0B586B004AF78607B6803F568647B68A5
:101B900003F6C9257B68D3F8703E7A68D2F8742EB4
:101BA0007968D1F87C1E7868D0F8780E039002919D
:101BB000019200932B46044AC821204608F0CAFF30
:101BC00000BF0837BD46B0BD50C4000890B589B00D
:101BD00002AFF860B9607A60FB70FB78FB75002398
:101BE000FB70454804F050FC6EE0BB68102283F89F
:101BF0007F20B86800F0A2F8BB68002283F8742048
:101C000003F0A2FE0246BB681A67B86800F0B9F894
:101C1000BB6803F64970FA78FB7D009313467A6837
:101C2000364908F0CBFFBB6803F649720123042153
:101C3000B868FFF7F5FCBB68803300221A70BB68F8
:101C400003F58053D3F8A8417868FEF7C1FA03463C
:101C50009AB2BB6A7968204607F0AEFABB6803F512
:101C60008053D3F8A801BB6A0222254907F0A4FAE1
:101C7000BB68082283F87F20BB68002283F8F42722
:101C800003F062FE0246BB68C3F8F02704E0BB68BD
:101C900093F8F437002B0AD103F056FE0246BB68D6
:101CA000D3F8F037D31ABA6A9A42F0D200E000BFF4
:101CB000BB6893F87F30002B0DD0B86800F03EF879
:101CC0004FF4FA7003F04CFEFB785A1CFA70FA7D60
:101CD0009A428AD800E000BFC82003F041FEFA68AB
:101CE000BB6810467F3340F22132194608F084FD6C
:101CF000F8681C37BD4690BDB8000020A4C4000899
:101D000034C3000880B485B000AF78600023FB6066
:101D100009E07A68FB68134403F2F57300221A7035
:101D2000FB680133FB60FB68B3F5167FF1D300BF9E
:101D300000BF1437BD465DF8047B704780B485B0A2
:101D400000AF78600023FB6009E07A68FB68134409
:101D500003F2CC4300221A70FB680133FB60FB687E
:101D6000B3F5487FF1D37B680022A3F8EC277B68AA
:101D70000022A3F8EE2700BF1437BD465DF8047BB0
:101D8000704780B582B000AF78607B6803F5805300
:101D9000D3F8A831184607F0A3FA7B6803F58053FF
:101DA000D3F8A8017B6803F568734FF4967219465F
:101DB00008F091FC7B6803F58053D3F8AC311B68C5
:101DC0001A687B6803F58053D3F8AC311B6822F0A6
:101DD00004021A6000BF0837BD4680BD80B588B0D8
:101DE00000AFF860B9601346FB80FB6803F58053D1
:101DF000D3F8A8311B68A44A934240F04281FB68A3
:101E0000B3F8EE27FB68A3F8EC27FB68B3F8EC37D0
:101E10001A46FB881344B3F5487F12D9FB6803F6D2
:101E200049739A49184608F0C9FEFB6803F64972DF
:101E300000230221F868FFF7F3FBF868FFF77EFF45
:101E400016E0FB6803F2CC43FA68B2F8EC27981866
:101E5000FB6803F56873FA88194608F0CDFCFB6847
:101E6000B3F8EC27FB8813449AB2FB68A3F8EE277B
:101E7000FB6893F87430002B00F0828004F0DCFCE7
:101E80000023FB6175E0FB6803F2CC428049FB69EB
:101E900051F823301946104608F0D8FE38613B69E6
:101EA000002B63D0FB6803F2CC4201230421F868C5
:101EB000FFF7B6FBFB6803F649737649184608F04E
:101EC0007DFEFB6803F6497201230021F868FFF7E5
:101ED000A7FBFB68002283F87F20F868FFF72EFF3E
:101EE000FB68012283F8F427FB69002B07D1FB680C
:101EF00003F649736849184608F060FE29E0FB695B
:101F0000012B0AD1FB6803F649736449184608F0AF
:101F100055FEFB6801221A701BE0FB69022B0AD1F7
:101F2000FB6803F649735E49184608F047FEFB68F4
:101F300000221A700DE0FB69032B0AD1FB6803F63F
:101F400049735849184608F039FEFB68012283F8A6
:101F50003C2BFB6803F6497201230021F868FFF768
:101F60005FFBFB68002283F874208AE0FB69013381
:101F7000FB61FB69032B86D9F868FFF7DFFE80E081
:101F80000023BB613EE0FB6803F2CC424649BB69DB
:101F900051F823301946104608F058FE38613B6965
:101FA000002B2CD0FB68002283F87F20FB6803F114
:101FB0008002FB6803F2CC431946104608F02BFE62
:101FC000FB6803F2CC4201230421F868FFF728FBE9
:101FD000FB6803F649733549184608F0EFFDFB68C6
:101FE00003F6497200230021F868FFF719FBF8682F
:101FF000FFF7A4FEFB68012283F8F42741E0BB69E8
:102000000133BB61BB69022BBDD900237B6134E086
:10201000FB6803F2CC4226497B6951F8233019460C
:10202000104608F013FE38613B69002B22D0FB6894
:10203000012283F87F20FB6803F2CC4201230421B4
:10204000F868FFF7EDFAFB6803F64973194918467B
:1020500008F0B4FDFB6803F6497200230221F8681A
:10206000FFF7DEFAF868FFF769FEFB68012283F8E4
:10207000F42706E07B6901337B617B69012BC7D9BB
:1020800000BF2037BD4680BD00380140DCC40008D9
:102090001400002034C5000854C5000868C50008B5
:1020A0007CC5000890C5000800000020BCC50008E1
:1020B0000C000020D4C5000890B5ADF5517D02AFED
:1020C000C7F82C03102387F83733D7F82C4338464A
:1020D0004FF4167300930A23424AD7F82C13FFF7E4
:1020E00075FD07F54E73A3F54E7204F17F0311469B
:1020F00040F22132184608F07FFBD7F82C3393F8D2
:102100007F3087F83733D7F82C3303F6497497F8C4
:1021100037331846FEF7C2FF03461A4632492046B7
:1021200008F04CFD97F83733002B0ED0D7F82C333E
:1021300003F6497200230121D7F82C03FFF770FA48
:10214000D7F82C03FFF786F945E0D7F82C3303F6D0
:10215000497200230021D7F82C03FFF761FAD7F862
:102160002C3303F64970D7F82C331B7A1A461F49D3
:1021700008F024FDD7F82C3303F64972012300211F
:10218000D7F82C03FFF74CFA17E0D7F82C43384662
:102190004FF47A7300930123124AD7F82C13FFF7F8
:1021A00015FD07F54E73A3F54E7204F17F0311463A
:1021B00040F22132184608F01FFBD7F82C331B7A67
:1021C0005A1ED1B2D7F82C231172002BDDD1D7F8CB
:1021D0002C3304221A7297F83733184607F54F77D5
:1021E000BD4690BDF0C50008F4C5000814C600083F
:1021F00090B5ADF5517D02AFC7F82C030B4687F8BB
:102200002B33102387F8363397F82B33002B03D06A
:10221000012387F8373302E0002387F83733D7F8F4
:102220002C3303F2F57097F83733384A384908F001
:10223000C5FCD7F82C3303F2F572D7F82C43384697
:102240004FF47A7300930423D7F82C13FFF7BEFCE6
:1022500007F54E73A3F54E7204F17F03114640F269
:102260002132184608F0C8FAD7F82C3393F87F309B
:1022700087F83633D7F82C3397F82B2383F8EF2AD7
:10228000D7F82C3393F8EF3A002B08D0D7F82C333B
:1022900003F649731F49184608F090FC07E0D7F889
:1022A0002C3303F649731C49184608F087FCD7F80D
:1022B0002C3303F6497497F836331846FEF7EEFED2
:1022C00003461A461549204608F078FC97F836333D
:1022D000002B0AD0D7F82C3303F6497200230121D2
:1022E000D7F82C03FFF79CF909E0D7F82C3303F655
:1022F000497200230021D7F82C03FFF791F997F8D2
:102300003633184607F54F77BD4690BD30C60008F6
:1023100034C600083CC600084CC6000860C6000869
:1023200090B5ADF5517D02AFC7F82C030B4687F889
:102330002B33102387F8363397F82B33002B03D039
:10234000012387F8373302E0002387F83733D7F8C3
:102350002C3303F2F57097F83733384A384908F0D0
:102360002DFCD7F82C3303F2F572D7F82C433846FE
:102370004FF47A7300930423D7F82C13FFF726FC4D
:1023800007F54E73A3F54E7204F17F03114640F238
:102390002132184608F030FAD7F82C3393F87F3002
:1023A00087F83633D7F82C3397F82B2383F8F02AA5
:1023B000D7F82C3393F8F03A002B08D0D7F82C3309
:1023C00003F649731F49184608F0F8FB07E0D7F8F1
:1023D0002C3303F649731C49184608F0EFFBD7F875
:1023E0002C3303F6497497F836331846FEF756FE39
:1023F00003461A461549204608F0E0FB97F83633A5
:10240000002B0AD0D7F82C3303F6497200230121A0
:10241000D7F82C03FFF704F909E0D7F82C3303F6BB
:10242000497200230021D7F82C03FFF7F9F897F839
:102430003633184607F54F77BD4690BD84C6000871
:1024400094C600089CC60008ACC60008BCC60008BC
:1024500090B5ADF5537D02AFC7F82C03102387F874
:102460003F33D7F82C3303F2F573714A714918469C
:1024700008F0A4FBD7F82C3303F2F572D7F82C43FD
:1024800038464FF47A7300930423D7F82C13FFF7E0
:102490009DFB07F55073A3F5507204F17F031146BD
:1024A00040F22132184608F0A7F9D7F82C3393F8F8
:1024B0007F3087F83F33D7F82C3303F6497497F809
:1024C0003F331846FEF7EAFD03461A465A492046AE
:1024D00008F074FB97F83F33002B0AD0D7F82C3361
:1024E00003F6497200230121D7F82C03FFF798F86F
:1024F00097E0D7F82C3303F6497200230021D7F870
:102500002C03FFF78DF8D7F82C3380334B4918464E
:1025100008F09CFB0246D7F82C33C3F8502AD7F8B2
:102520002C33D3F8503A002B66D0D7F82C33D3F89D
:10253000503A9A1CD7F82C33C3F8502AD7F82C33CA
:10254000D3F8503A2221184608F058FBC7F8380350
:10255000D7F83833002B39D0D7F838330133C7F8E0
:1025600038332221D7F8380308F048FBC7F8340382
:10257000D7F83433002B03D0D7F8343300221A7045
:10258000D7F82C3303F6C9230F22D7F8381318468F
:1025900008F049FBD7F82C33002283F8D82AD7F863
:1025A0002C3303F64970D7F82C3303F6C9231A46A7
:1025B000234908F003FBD7F82C3303F649720023B4
:1025C0000021D7F82C03FFF72BF82AE0D7F82C339B
:1025D00003F649731B49184608F0F0FAD7F82C3374
:1025E00003F6497200230221D7F82C03FFF718F8ED
:1025F000012387F83F3314E0D7F82C3303F64973EF
:102600001049184608F0DAFAD7F82C3303F6497265
:1026100000230221D7F82C03FFF702F8012387F8E3
:102620003F3397F83F33184607F55177BD4690BDC5
:10263000E0C60008E8C60008F0C6000810C7000899
:1026400014C7000820C7000890B5ADF5517D02AF52
:10265000C7F82C03102387F83733D7F82C3303F24D
:10266000F5734E4A4E49184608F0A8FAD7F82C33AD
:1026700003F2F572D7F82C43384640F6B83300938E
:102680000723D7F82C13FFF7A1FA07F54E73A3F52C
:102690004E7204F17F03114640F22132184608F0D1
:1026A000ABF8D7F82C3393F87F3087F83733D7F867
:1026B0002C3303F6497497F837331846FEF7EEFCCF
:1026C00003461A463749204608F078FA97F8373318
:1026D000002B0AD0D7F82C3303F6497200230121CE
:1026E000D7F82C03FEF79CFF51E0D7F82C3303F604
:1026F000497200230021D7F82C03FEF791FFD7F889
:102700002C3380330A21184608F078FA0246D7F8AD
:102710002C33C3F8502AD7F82C33D3F8503A5A1C2C
:10272000D7F82C33C3F8502AD7F82C33D3F8502AD3
:10273000D7F82C3303F654231946104608F09CFAB8
:102740000246D7F82C33C3F8502AD7F82C3303F6B7
:10275000DA22D7F82C33D3F8503A1946104608F04D
:102760005AFAD7F82C3303F64970D7F82C3303F60E
:10277000DA231A460C4908F021FAD7F82C3303F66D
:10278000497200230021D7F82C03FEF749FF97F880
:102790003733184607F54F77BD4690BD44C700084C
:1027A0004CC7000850C7000874C700082DE9F04363
:1027B000ADF5557D02AFC7F82C03102387F84733DA
:1027C000D7F82C3303F2F573924A9349184608F070
:1027D000F5F9D7F82C3303F2F572D7F82C633846A5
:1027E0004FF47A7300930423D7F82C13FFF7EEF914
:1027F00007F55273A3F5527206F17F03114640F2BA
:102800002132184607F0F8FFD7F82C3393F87F30C1
:1028100087F84733D7F82C3303F6497697F84733D0
:102820001846FEF73BFC03461A467C49304608F042
:10283000C5F997F84733002B0AD0D7F82C3303F6A5
:10284000497200230121D7F82C03FEF7E9FED9E0F5
:102850006B461E46D7F82C3303F64972002300213D
:10286000D7F82C03FEF7DCFE0223C7F84033D7F875
:1028700040134B1EC7F83C330A4600239046994646
:102880004FF000024FF000034FEA491343EAD863C8
:102890004FEA48120A46002314461D464FF0000234
:1028A0004FF000036B0143EAD46362010B469B00C7
:1028B0000733DB08DB00ADEB030D02AB03339B08F2
:1028C0009B00C7F83833002387F84633D7F82C33FA
:1028D00080333A21184608F091F9C7F83403D7F845
:1028E00034330233C7F83433D7F82C3303F6542388
:1028F0001946D7F8340308F0BFF90246D7F82C334D
:10290000C3F8502A1BE097F84623D7F82C33D3F8A6
:10291000501AD7F8383343F82210D7F82C3303F67F
:1029200054231946002008F0A7F90246D7F82C33A3
:10293000C3F8502A97F84633013387F84633D7F85F
:102940002C33D3F8503A002B05D097F84633D7F8FC
:1029500040239A42D7DCD7F838331B68184607F073
:1029600015FF034687F83333D7F838335B681846CA
:1029700007F00CFF034687F83233D7F82C3303F601
:10298000497397F833232649184608F017F9D7F802
:102990002C3303F6497200230021D7F82C03FEF7ED
:1029A0003FFE97F83233072B0AD8D7F82C3303F6BB
:1029B000497397F832231B49184608F0FFF816E0D0
:1029C00097F83233632B08D1D7F82C3303F64973C9
:1029D0001549184608F0F2F809E0D7F82C3303F649
:1029E000497397F833231149184608F0E7F8D7F8E8
:1029F0002C3303F6497200230021D7F82C03FEF78D
:102A00000FFEB54697F84733184607F55377BD468E
:102A1000BDE8F08390C700084CC7000898C70008BD
:102A2000C0C70008D0C70008ECC7000824C80008C9
:102A300090B5ADF5537D02AFC7F82C030B4687F870
:102A40002B33102387F83E33D7F82C3303F2F5737A
:102A5000614A6249184608F0B1F8D7F82C3303F2FE
:102A6000F572D7F82C43384640F6B8330093052367
:102A7000D7F82C13FFF7AAF807F55073A3F5507297
:102A800004F17F03114640F22132184607F0B4FEEC
:102A9000D7F82C3393F87F3087F83E33D7F82C33B0
:102AA00003F6497497F83E331846FEF7F7FA0346E3
:102AB0001A464B49204608F081F897F83E33002B20
:102AC0000AD0D7F82C3303F6497200230121D7F836
:102AD0002C03FEF7A5FD78E0D7F82C3303F64972F6
:102AE00000230021D7F82C03FEF79AFD0023C7F836
:102AF0003833002387F83F3397F83F33D7F82C2338
:102B0000134493F880303A2B0FD197F83F33783342
:102B1000D7F82C23134408330233C7F8383300BFE7
:102B2000D7F83833002B0CD105E097F83F33013349
:102B300087F83F33E0E70B2387F83E3397F83E33BF
:102B400045E0D7F8380307F021FE034687F837330E
:102B5000D7F838330233184607F018FE034687F8D3
:102B60003633D7F82C3397F8372383F8ED2AD7F884
:102B70002C3397F8362383F8EE2AD7F82C3303F654
:102B8000497397F837231749184608F017F8D7F80C
:102B90002C3303F6497200230021D7F82C03FEF7EB
:102BA0003FFDD7F82C3303F6497397F836230E49C7
:102BB000184608F003F8D7F82C3303F649720023BF
:102BC0000021D7F82C03FEF72BFD97F83E3318466B
:102BD00007F55177BD4690BD48C8000854C80008A5
:102BE00088C80008B8C80008C4C8000890B5ADF58A
:102BF000517D02AFC7F82C030B4687F82B33102307
:102C000087F8373397F82B33002B07D097F82B33FF
:102C1000012B03D097F82B33022B3FD1D7F82C335D
:102C200003F2F57097F82B333F4A404907F0C6FF8F
:102C3000D7F82C3303F2F572D7F82C4338464FF40B
:102C40007A7300930423D7F82C13FEF7BFFF07F520
:102C50004E73A3F54E7204F17F03114640F2213208
:102C6000184607F0C9FDD7F82C3393F87F3087F862
:102C70003733D7F82C3303F6497397F82B232C49B5
:102C8000184607F09BFFD7F82C3303F64972002350
:102C90000021D7F82C03FEF7C3FC16E0D7F82C333D
:102CA00003F6497397F82B232249184607F086FF4D
:102CB000D7F82C3303F6497200230221D7F82C03EE
:102CC000FEF7AEFC062387F83733D7F82C3303F62C
:102CD000497497F837331846FEF7E0F903461A4669
:102CE0001549204607F06AFF97F83733002B0AD0C2
:102CF000D7F82C3303F6497200230121D7F82C03AF
:102D0000FEF78EFC09E0D7F82C3303F64972002356
:102D10000021D7F82C03FEF783FC97F837331846C9
:102D200007F54F77BD4690BD34C9000894C600082A
:102D3000B8C800083CC9000854C9000890B5ADF5F2
:102D4000517D02AFC7F82C03102387F83733D7F82B
:102D50002C3303F2F5732A4A2A49184607F02EFF4E
:102D6000D7F82C3303F2F572D7F82C43384641F2EA
:102D7000883300930423D7F82C13FEF727FF07F5B9
:102D80004E73A3F54E7204F17F03114640F22132D7
:102D9000184607F031FDD7F82C3393F87F3087F8C9
:102DA0003733D7F82C3303F6497497F8373318467E
:102DB000FEF774F903461A461349204607F0FEFE53
:102DC00097F83733002B0AD0D7F82C3303F6497223
:102DD00000230121D7F82C03FEF722FC09E0D7F8E5
:102DE0002C3303F6497200230021D7F82C03FEF799
:102DF00017FC97F83733184607F54F77BD4690BD57
:102E00007CC900084CC7000880C9000890B5ADF522
:102E1000517D02AFC7F82C03102387F83733D7F85A
:102E20002C3303F2F5732A4A2A49184607F0C6FEE6
:102E3000D7F82C3303F2F572D7F82C4338464FF409
:102E40007A7300930423D7F82C13FEF7BFFE07F51F
:102E50004E73A3F54E7204F17F03114640F2213206
:102E6000184607F0C9FCD7F82C3393F87F3087F861
:102E70003733D7F82C3303F6497497F837331846AD
:102E8000FEF70CF903461A461349204607F096FE52
:102E900097F83733002B0AD0D7F82C3303F6497252
:102EA00000230121D7F82C03FEF7BAFB09E0D7F87D
:102EB0002C3303F6497200230021D7F82C03FEF7C8
:102EC000AFFB97F83733184607F54F77BD4690BDEF
:102ED0009CC900084CC70008A4C9000890B5ADF50E
:102EE000517D02AFC7F82C030B4687F82B33102314
:102EF00087F8373397F82B33022B1AD0022B22DCBA
:102F0000002B02D0012B0AD01DE0D7F82C3303F29E
:102F1000F5733A4A3A49184607F050FE1DE0D7F8D3
:102F20002C3303F2F573354A3649184607F046FE4E
:102F300013E0D7F82C3303F2F573304A32491846C0
:102F400007F03CFE09E0D7F82C3303F2F5732B4A67
:102F50002E49184607F032FE00BFD7F82C3303F293
:102F6000F572D7F82C4338464FF47A730093042354
:102F7000D7F82C13FEF72AFE07F54E73A3F54E7211
:102F800004F17F03114640F22132184607F034FC69
:102F9000D7F82C3393F87F3087F83733D7F82C33B2
:102FA00003F6497497F837331846FEF777F8034667
:102FB0001A461749204607F001FE97F83733002BD1
:102FC0000AD0D7F82C3303F6497200230121D7F831
:102FD0002C03FEF725FB09E0D7F82C3303F64972E2
:102FE00000230021D7F82C03FEF71AFB97F837339C
:102FF000184607F54F77BD4690BD00BFC4C900080D
:10300000D0C90008E0C90008F0C9000800CA0008DB
:1030100008CA000890B5ADF5517D02AFC7F82C0382
:10302000102387F83733D7F82C3303F2F5732A4A85
:103030002A49184607F0C2FDD7F82C3303F2F5727F
:10304000D7F82C4338464FF47A7300930423D7F80B
:103050002C13FEF7BBFD07F54E73A3F54E7204F17A
:103060007F03114640F22132184607F0C5FBD7F81E
:103070002C3393F87F3087F83733D7F82C3303F6A7
:10308000497497F837331846FEF708F803461A468E
:103090001349204607F092FD97F83733002B0AD0EA
:1030A000D7F82C3303F6497200230121D7F82C03FB
:1030B000FEF7B6FA09E0D7F82C3303F6497200237D
:1030C0000021D7F82C03FEF7ABFA97F837331846F0
:1030D00007F54F77BD4690BD34CA00084CC70008BD
:1030E0003CCA000890B5ADF5517D02AFC7F82C037E
:1030F000102387F83733D7F82C3303F2F5732A4AB5
:103100002A49184607F05AFDD7F82C3303F2F57216
:10311000D7F82C4338464FF47A7300930423D7F83A
:103120002C13FEF753FD07F54E73A3F54E7204F111
:103130007F03114640F22132184607F05DFBD7F8B5
:103140002C3393F87F3087F83733D7F82C3303F6D6
:10315000497497F837331846FDF7A0FF03461A461F
:103160001349204607F02AFD97F83733002B0AD081
:10317000D7F82C3303F6497200230121D7F82C032A
:10318000FEF74EFA09E0D7F82C3303F64972002314
:103190000021D7F82C03FEF743FA97F83733184687
:1031A00007F54F77BD4690BD54CA00084CC70008CC
:1031B0005CCA000890B5ADF5517D02AFC7F82C038D
:1031C000102387F83733D7F82C3303F2F5732A4AE4
:1031D0002A49184607F0F2FCD7F82C3303F2F572AF
:1031E000D7F82C4338464FF47A7300930423D7F86A
:1031F0002C13FEF7EBFC07F54E73A3F54E7204F1AA
:103200007F03114640F22132184607F0F5FAD7F84D
:103210002C3393F87F3087F83733D7F82C3303F605
:10322000497497F837331846FDF738FF03461A46B6
:103230001349204607F0C2FC97F83733002B0AD019
:10324000D7F82C3303F6497200230121D7F82C0359
:10325000FEF7E6F909E0D7F82C3303F649720023AC
:103260000021D7F82C03FEF7DBF997F8373318461F
:1032700007F54F77BD4690BDDCCA0008ECCA0008D0
:1032800000CB000890B5ADF5517D02AFC7F82C0317
:10329000102387F83733D7F82C3303F2F5732A4914
:1032A000184607F08BFCD7F82C3303F2F572D7F8E9
:1032B0002C4338464FF47A6300930523D7F82C1338
:1032C000FEF784FC07F54E73A3F54E7204F17F03FD
:1032D000114640F22132184607F08EFAD7F82C3307
:1032E00093F87F3087F83733D7F82C3303F64974D7
:1032F00097F837331846FDF7D1FE03461A461349AF
:10330000204607F05BFC97F83733002B0AD0D7F83C
:103310002C3303F6497200230121D7F82C03FEF762
:103320007FF909E0D7F82C3303F649720023002116
:10333000D7F82C03FEF774F997F83733184607F5DA
:103340004F77BD4690BD00BF24CB000830CB0008AE
:1033500090B5ADF5537D02AFC7F83403C7F830130D
:10336000C7F82C23102387F83F33D7F83403FEF730
:10337000C9FCD7F8343303F568631846FCF728FF17
:103380000346C7F83833D7F8343303F2F570D7F86B
:103390002C330093D7F83033D7F83823324907F06D
:1033A0000DFCD7F8343303F2F57238464FF47A73D4
:1033B00000930123D7F83413FEF708FCD7F8343311
:1033C00003F2F572D7F8343303F5686319461046F3
:1033D00007F0F4FBD7F8343303F568631946234844
:1033E00007F01AFBD7F8343303F2F57238464FF47E
:1033F0007A7300930123D7F83413FEF7E7FBD7F86D
:10340000343393F87F3087F83F33D7F8343303F6FB
:10341000497497F83F331846FDF740FE03461A46B5
:103420001349204607F0CAFB97F83F33002B0AD018
:10343000D7F8343303F6497200230121D7F8340357
:10344000FEF7EEF809E0D7F8343303F649720023AB
:103450000021D7F83403FEF7E3F897F83F33184616
:1034600007F55177BD4690BD48CB000860CB0008FA
:1034700078CB000890B5ADF5517D02AFC7F82C03AD
:10348000102387F83733D7F82C3303F2F5732A4922
:10349000184607F093FBD7F82C3303F2F572D7F8F0
:1034A0002C43384640F6B83300930423D7F82C1346
:1034B000FEF78CFB07F54E73A3F54E7204F17F0304
:1034C000114640F22132184607F096F9D7F82C330E
:1034D00093F87F3087F83733D7F82C3303F64974E5
:1034E00097F837331846FDF7D9FD03461A461349B6
:1034F000204607F063FB97F83733002B0AD0D7F844
:103500002C3303F6497200230121D7F82C03FEF770
:1035100087F809E0D7F82C3303F64972002300211D
:10352000D7F82C03FEF77CF897F83733184607F5E1
:103530004F77BD4690BD00BFA8CB0008B4CB0008B4
:1035400090B5ADF5517D02AFC7F82C030B4687F857
:103550002B33102387F83733D7F82C3303F2F57069
:1035600097F82B33344A354907F028FBD7F82C332A
:1035700003F2F572D7F82C4338464FF47A73009370
:103580000423D7F82C13FEF721FB07F54E73A3F5A0
:103590004E7204F17F03114640F22132184607F0C3
:1035A0002BF9D7F82C3393F87F3087F83733D7F8D7
:1035B0002C3303F6497497F837331846FDF76EFD40
:1035C00003461A461E49204607F0F8FA97F82B33AF
:1035D000002B08D0D7F82C3303F649731949184645
:1035E00007F0ECFA07E0D7F82C3303F649731649D5
:1035F000184607F0E3FA97F83733002B0AD0D7F8CC
:103600002C3303F6497200230121D7F82C03FEF76F
:1036100007F809E0D7F82C3303F64972002300219C
:10362000D7F82C03FDF7FCFF97F83733184607F55A
:103630004F77BD4690BD00BFF0CB0008FCCB000823
:1036400004CC000824CC000840CC000890B5ADF5AF
:10365000517D02AFC7F82C030B4687F82B3310239C
:1036600087F83733D7F82C3303F2F57097F82B33FC
:10367000504A514907F0A2FAD7F82C3303F2F572F9
:10368000D7F82C4338464FF47A7300930423D7F8C5
:103690002C13FEF79BFA07F54E73A3F54E7204F157
:1036A0007F03114640F22132184607F0A5F8D7F8FB
:1036B0002C3393F87F3087F83733D7F82C3303F661
:1036C000497497F837331846FDF7E8FC03461A4665
:1036D0003A49204607F072FA97F82B33002B08D1AD
:1036E000D7F82C3303F649733549184607F066FAC4
:1036F0003FE097F82B33012B08D1D7F82C3303F692
:1037000049733049184607F059FA32E097F82B33DD
:10371000022B08D1D7F82C3303F649732A491846EF
:1037200007F04CFA25E097F82B33032B08D1D7F894
:103730002C3303F649732549184607F03FFA18E081
:1037400097F82B33042B08D1D7F82C3303F64973A1
:103750001F49184607F032FA0BE097F82B33052B78
:1037600007D1D7F82C3303F649731A49184607F0E6
:1037700025FA97F83733002B0AD0D7F82C3303F605
:10378000497200230121D7F82C03FDF749FF09E016
:10379000D7F82C3303F6497200230021D7F82C0305
:1037A000FDF73EFF97F83733184607F54F77BD46CC
:1037B00090BD00BF48C8000894C600085CCC000853
:1037C00084CC0008BCCC0008F4CC000844CD000830
:1037D000B0CD000810CE000890B5ADF5537D02AF16
:1037E000C7F83403C7F82C23C7F828330B4687F8EB
:1037F0003333102387F83F3397F83333012B23D12A
:10380000D7F8343303F2F57097F83323D7F8283319
:103810000193D7F82C3300931346554A554907F0C6
:10382000CDF9D7F8343303F6F323D7F82C13184621
:1038300007F0F1F9D7F8343303F6FC23D7F828134F
:10384000184607F0E8F909E0D7F8343303F2F570C9
:1038500097F83333464A484907F0B0F9D7F834337C
:1038600003F2F572D7F8344338464FF47A73009375
:103870000423D7F83413FEF7A9F907F55073A3F51D
:10388000507204F17F03114640F22132184606F0CF
:10389000B3FFD7F8343393F87F3087F83F33D7F846
:1038A000343303F6497497F83F331846FDF7F6FBB7
:1038B00003461A463149204607F080F997F833331A
:1038C000002B08D1D7F8343303F649732C49184636
:1038D00007F074F918E097F83333012B08D1D7F8C3
:1038E000343303F649732749184607F067F90BE0AC
:1038F00097F83333022B07D1D7F8343303F64973E3
:103900002149184607F05AF997F83F33002B0AD09F
:10391000D7F8343303F6497200230121D7F8340372
:10392000FDF77EFE1DE0D7F8343303F6497200231D
:103930000021D7F83403FDF773FED7F8343303F6CC
:10394000F32200230021D7F83403FDF769FED7F8EE
:10395000343303F6FC2200230021D7F83403FDF7AB
:103960005FFE97F83F33184607F55177BD4690BD87
:1039700074CF000880CF000894C6000894CF0008D8
:10398000A8CF0008B8CF0008C4CF000890B5ADF5A7
:10399000517D02AFC7F82C030B4687F82B33134633
:1039A00087F82A33102387F8373397F82A33042B04
:1039B00014D9062387F83733D7F82C3303F6497424
:1039C00097F837331846FDF769FB03461A4637491F
:1039D000204607F0F3F897F8373362E097F82B3377
:1039E000002B0AD0D7F82C3303F2F57097F82A335E
:1039F0002F4A304907F0E2F808E0D7F82C3303F2F9
:103A0000F5732B4A2C49184607F0D8F8D7F82C3311
:103A100003F2F572D7F82C4338464FF47A730093CB
:103A20000423D7F82C13FEF7D1F807F54E73A3F54E
:103A30004E7204F17F03114640F22132184606F01F
:103A4000DBFED7F82C3393F87F3087F83733D7F87D
:103A50002C3303F6497497F837331846FDF71EFBED
:103A600003461A461149204607F0A8F897F837335D
:103A7000002B0AD0D7F82C3303F64972002301211A
:103A8000D7F82C03FDF7CCFD09E0D7F82C3303F66B
:103A9000497200230021D7F82C03FDF7C1FD97F8E8
:103AA0003733184607F54F77BD4690BDF4CF000871
:103AB00008D0000814D000081CD0000880B582B0DF
:103AC00000AF78607B6803F649730849184607F031
:103AD00075F87B6803F64972012300217868FDF7C9
:103AE0009FFD00BF0837BD4680BD00BF24D0000841
:103AF00090B5ADF5517D02AFC7F82C030B4687F8A2
:103B00002B33102387F83733D7F82C3303F2F573B0
:103B10002A4A2B49184607F051F8D7F82C3303F2FC
:103B2000F572D7F82C43384640F6B8330093062395
:103B3000D7F82C13FEF74AF807F54E73A3F54E722B
:103B400004F17F03114640F22132184606F054FE7C
:103B5000D7F82C3393F87F3087F83733D7F82C33E6
:103B600003F6497497F837331846FDF797FA03467A
:103B70001A461449204607F021F897F83733002BEE
:103B80000AD0D7F82C3303F6497200230121D7F865
:103B90002C03FDF745FD09E0D7F82C3303F64972F5
:103BA00000230021D7F82C03FDF73AFD97F83733AF
:103BB000184607F54F77BD4690BD00BF44D00008BA
:103BC0004CC7000854D0000890B5ADF5517D02AF48
:103BD000C7F82C03102387F83733D7F82C3303F2B8
:103BE000F5732A4A2A49184606F0E8FFD7F82C331D
:103BF00003F2F572D7F82C4338464FF47A730093EA
:103C00000423D7F82C13FDF7E1FF07F54E73A3F556
:103C10004E7204F17F03114640F22132184606F03D
:103C2000EBFDD7F82C3393F87F3087F83733D7F88C
:103C30002C3303F6497497F837331846FDF72EFAFC
:103C400003461A461349204606F0B8FF97F8373363
:103C5000002B0AD0D7F82C3303F649720023012138
:103C6000D7F82C03FDF7DCFC09E0D7F82C3303F67A
:103C7000497200230021D7F82C03FDF7D1FC97F8F7
:103C80003733184607F54F77BD4690BD7CD0000806
:103C9000E8C6000884D0000890B5ADF5517D02AFAC
:103CA000C7F82C030B4687F82B33102387F83733DC
:103CB000D7F82C3303F2F5732A4A2B49184606F03D
:103CC0007DFFD7F82C3303F2F572D7F82C43384632
:103CD0004FF47A7300930423D7F82C13FDF776FF83
:103CE00007F54E73A3F54E7204F17F03114640F2BF
:103CF0002132184606F080FDD7F82C3393F87F3038
:103D000087F83733D7F82C3303F6497497F83733ED
:103D10001846FDF7C3F903461A461449204606F033
:103D20004DFF97F83733002B0AD0D7F82C3303F622
:103D3000497200230121D7F82C03FDF771FC09E03B
:103D4000D7F82C3303F6497200230021D7F82C034F
:103D5000FDF766FC97F83733184607F54F77BD46F1
:103D600090BD00BFC4D0000854C80008CCD00008E3
:103D700090B5ADF5517D02AFC7F82C03102387F83D
:103D80003733D7F82C3303F2F5732A4A2A491846F9
:103D900006F014FFD7F82C3303F2F572D7F82C4352
:103DA000384640F6B83300930523D7F82C13FDF7B7
:103DB0000DFF07F54E73A3F54E7204F17F03114614
:103DC00040F22132184606F017FDD7F82C3393F84D
:103DD0007F3087F83733D7F82C3303F6497497F8D8
:103DE00037331846FDF75AF903461A461349204659
:103DF00006F0E4FE97F83733002B0AD0D7F82C33BF
:103E000003F6497200230121D7F82C03FDF708FCC3
:103E100009E0D7F82C3303F6497200230021D7F8C4
:103E20002C03FDF7FDFB97F83733184607F54F775E
:103E3000BD4690BDE0D0000854C80008E8D0000896
:103E400090B5ADF5517D02AFC7F82C030B4687F84E
:103E50002B33102387F83733D7F82C3303F2F57060
:103E600097F82B33294A2A4906F0A8FED7F82C33B5
:103E700003F2F572D7F82C4338464FF47A73009367
:103E80000423D7F82C13FDF7A1FE07F54E73A3F515
:103E90004E7204F17F03114640F22132184606F0BB
:103EA000ABFCD7F82C3393F87F3087F83733D7F84B
:103EB0002C3303F6497497F837331846FDF7EEF8BC
:103EC00003461A461349204606F078FE97F8373322
:103ED000002B0AD0D7F82C3303F6497200230121B6
:103EE000D7F82C03FDF79CFB09E0D7F82C3303F639
:103EF000497200230021D7F82C03FDF791FB97F8B6
:103F00003733184607F54F77BD4690BD04D10008FA
:103F100094C600080CD1000880B5ADF5507D02AF05
:103F2000C7F82C03052387F83733A9E097F937330F
:103F3000DBB2013BDBB287F8373397F93733002B1D
:103F400012D10021D7F82C03FEF7EAF9042201214F
:103F5000D7F82C03FFF71AFD0346002B00D08FE0A3
:103F6000D7F82C03FDF726FAD7F82C03FEF7A4F8B0
:103F70000346002B00D083E00021D7F82C03FEF786
:103F800037F90346002B00D07AE0D7F82C03FFF76F
:103F9000EFFE0346002B12D00021D7F82C03FEF7CA
:103FA000BFF904220121D7F82C03FFF7EFFC0346E9
:103FB000002B00D064E0D7F82C03FDF7FBF90221B9
:103FC000D7F82C03FEF712FE0346002B00D057E073
:103FD00001220021D7F82C03FFF7D8FC0346002B61
:103FE00000D04DE00121D7F82C03FEF799F9D7F85E
:103FF0002C03FEF7A3FE0346002B00D040E0D7F8C9
:104000002C03FEF703FF0346002B00D038E0D7F85F
:104010002C03FEF7FFFF0346002B00D030E0D7F85B
:104020002C03FEF711FB0346002B00D028E0D7F845
:104030002C03FEF70DFA0346002B00D020E0D7F842
:104040002C03FFF74FF80346002B00D018E00321A4
:10405000D7F82C03FEF742FF0346002B00D00FE0F9
:10406000D7F82C03FEF7A2FB0346002B00D007E095
:104070004FF4FA6001F074FCD7F82C3302225A7026
:10408000D7F82C335B78012B3FF450AF032387F82C
:104090003733B0E097F93733012B03DC41F2883036
:1040A00001F05EFC0121D7F82C03FEF7C1FC0346AA
:1040B000002B0AD1D7F82C3393F8EE3A012B04D118
:1040C000D7F82C3303225A700CE042F2107001F042
:1040D00047FC97F93733DAB2013AD2B287F837237F
:1040E000002BD7D197F93733B3F1FF3F40F08380EE
:1040F000032387F8373346E0D7F82C3303F64970AB
:1041000097F93733C3F103031A46C74906F056FD42
:10411000D7F82C3303F6497201230121D7F82C0379
:10412000FDF77EFA0021D7F82C03FFF789FE03463E
:10413000002B00D027E0D7F82C03FFF73BF803460D
:10414000002B00D01FE00121D7F82C03FFF778FEE9
:104150000346002B00D016E040F6B83001F000FC1A
:104160000121D7F82C03FEF763FC0346002B0AD18C
:10417000D7F82C3393F8EE3A012B04D1D7F82C332F
:1041800003225A7008E097F93733DAB2013AD2B213
:1041900087F83723002BAFD197F93733B3F1FF3FBF
:1041A00029D1D7F82C3303F64973A049184606F0F5
:1041B00005FDD7F82C3303F6497201230121D7F806
:1041C0002C03FDF72DFA0021D7F82C03FEF7A8F8F1
:1041D00004220121D7F82C03FFF7D8FB0346002B5C
:1041E00000D008E05021D7F82C03FCF7D3FFD7F814
:1041F0002C03FDF7DFF8D7F82C335B78022B3FF464
:1042000068AF88E0032387F8373324E0884B894A76
:104210000021D7F82C03FFF7DFFA0346002B00D06C
:1042200019E00021D7F82C03FFF762FC0346002BAE
:1042300000D010E0D7F82C03FFF7C6FC0346002B94
:1042400000D008E00021D7F82C03FFF725FD034636
:10425000002B00D000BF97F93733DAB2013AD2B25F
:1042600087F83723002BD1D10121D7F82C03FFF792
:1042700067F90346002B00D04DE00021D7F82C034E
:10428000FFF7E4F90346002B00D044E00421D7F8FF
:104290002C03FFF7DBF90346002B00D03BE04FF483
:1042A0007A7001F05DFB032387F8373307E00121C3
:1042B000D7F82C03FEF7BCFB0346002B09D097F977
:1042C0003733DAB2013AD2B287F83723002BEED176
:1042D00000E000BF97F93733B3F1FF3F17D100215A
:1042E000D7F82C03FEF71CF804220121D7F82C0381
:1042F000FFF74CFB0346002B00D00CE05021D7F811
:104300002C03FCF747FFD7F82C03FDF753F8D7F839
:104310002C3304225A70D7F82C335B78032B3FF4EC
:1043200071AF2EE138464FF47A7300930123424A6D
:10433000D7F82C13FDF74AFC38464FF47A730093F4
:1043400001233E4AD7F82C13FDF740FC032387F8DE
:10435000373306E0D7F82C03FEF794FF0346002B13
:1043600009D097F93733DAB2013AD2B287F8372356
:10437000002BEFD100E000BF97F93733B3F1FF3FD7
:1043800017D10021D7F82C03FDF7CAFF0422012121
:10439000D7F82C03FFF7FAFA0346002B00D0F0E021
:1043A0005021D7F82C03FCF7F5FED7F82C03FDF7C6
:1043B00001F8D7F82C03FDF7E3FB032387F8373325
:1043C0000023C7F8303311E043F239021C49D7F813
:1043D0002C03FEF7BDFF0346002B00D006E00123AF
:1043E000C7F8303340F6B83001F0BAFA97F93733EE
:1043F000DAB2013AD2B287F83723002BE4D197F929
:104400003733B3F1FF3F40F09180D7F83033002BC2
:1044100040F08C800121D7F82C03FEF709FB0346FE
:10442000002B0FD0ADE000BF64D10008B8D1000868
:10443000D4D10008E0D10008ECD10008F8D1000880
:1044400014D20008D7F82C3393F8EE3A012B12D18E
:10445000D7F82C3303F64973AB49184606F0AEFB88
:10446000D7F82C3303F6497201230121D7F82C0326
:10447000FDF7D6F85AE0D7F82C3393F8EE3A022B32
:104480003ED1D7F82C3303F64973A049184606F0FD
:1044900095FBD7F82C3303F6497201230121D7F895
:1044A0002C03FDF7BDF80021D7F82C03FFF7CEF859
:1044B0000346002B00D064E0954B954A0021D7F8C5
:1044C0002C03FFF789F90346002B00D059E00021A7
:1044D000D7F82C03FDF724FF04220121D7F82C0381
:1044E000FFF754FA0346002B00D04AE05021D7F8DA
:1044F0002C03FCF74FFED7F82C03FCF75BFF15E00D
:10450000D7F82C3303F64970D7F82C3393F8EE3AEA
:104510001A46804906F052FBD7F82C3303F649724D
:1045200001230021D7F82C03FDF77AF8D7F82C03E4
:10453000FEF7A0FF0421D7F82C03FFF787F8764B8E
:10454000764A0121D7F82C03FFF746F941F288306B
:1045500001F006FA0021D7F82C03FDF7E1FE042252
:104560000121D7F82C03FFF711FA0346002B00D0E6
:1045700007E04FF4FA6001F0F3F9D7F82C3300228A
:104580005A70D7F82C335B78042B3FF4CBAED7F8B6
:104590002C33012283F87420D7F82C3300221A70B0
:1045A00001F0D2F90246D7F82C331A67D7F82C035A
:1045B000FDF7C4FB072387F8373320E001F0C4F987
:1045C0000246D7F82C331A670BE0D7F82C331B7848
:1045D000002B06D0524801F057FF002387F83733ED
:1045E0000AE001F0B1F90246D7F82C331B6FD31A59
:1045F00042F210729342E8D9494801F045FF97F919
:104600003733DAB2013AD2B287F83723002BD5D14B
:10461000002387F837334FF4FA6001F0A1F9002145
:10462000D7F82C03FDF77CFE04220121D7F82C03D8
:10463000FFF7ACF95021D7F82C03FCF7ABFD384855
:1046400001F022FF032387F83733D7F82C03FCF758
:1046500001FF10E04FF4FA6001F082F9D7F82C0363
:10466000FDF72AFD0346002B05D10021D7F82C03C6
:10467000FDF7BEFD08E097F93733DAB2013AD2B25E
:1046800087F83723002BE5D197F93733B3F1FF3F94
:1046900003D1D7F82C03FCF78DFE032387F83733BB
:1046A0001AE00121D7F82C03FEF7C2F90346002BCC
:1046B00005D0D7F82C3393F8EE3A012B08D1D7F870
:1046C0002C3303225A704FF47A7001F049F916E046
:1046D0004FF47A7001F044F997F93733DAB2013ABE
:1046E000D2B287F83723002BDBD197F93733B3F1F8
:1046F000FF3F04D1D7F82C3301225A7000BF07F5D1
:104700004E77BD4680BD00BF24D2000848D20008C5
:1047100064D2000868D20008A0D20008ACD2000819
:10472000B800002080B586B000AFF860B9607A604C
:10473000FB70FB6893F8603E83F00103DBB2002B53
:1047400040F0B5802C2006F04FF803463B613B69F2
:10475000002B05D0B868FBF73BFD03461E2B04D9A0
:10476000FB68002283F8602EA4E03B69B968184614
:1047700006F051FAFB780B2B00F29B8001A252F855
:1047800023F000BFB5470008C5470008D54700081B
:10479000E5470008F54700080548000815480008E7
:1047A00025480008454800083548000855480008D5
:1047B000654800083B697A681A623B69002283F801
:1047C000242057E03B697A681A623B69012283F82A
:1047D00024204FE03B697A681A623B69022283F821
:1047E000242047E03B697A681A623B69032283F818
:1047F00024203FE03B697A681A623B69042283F80F
:10480000242037E03B697A681A623B69052283F805
:1048100024202FE03B697A681A623B69062283F8FC
:10482000242027E03B697A681A623B69072283F8F3
:1048300024201FE03B697A681A623B69092283F8E9
:10484000242017E03B697A681A623B69082283F8E2
:1048500024200FE03B697A681A623B690A2283F8D8
:10486000242007E03B697A681A623B690B2283F8CF
:10487000242000BF3B6900229A62FB68D3F8683E9F
:10488000002B04D1FB683A69C3F8682E12E0FB687C
:10489000D3F8683E7B6102E07B699B6A7B617B6940
:1048A0009B6A002BF8D17B693A699A6202E000BFEB
:1048B00000E000BF1837BD4680BD00BF80B582B0A4
:1048C00000AF78600B467B807B881A467968034886
:1048D000FDF784FA00BF0837BD4680BD08030020FD
:1048E00080B584B000AFF860B9607A607B689AB236
:1048F0004FF0FF33B968044804F05EFC7B6818464B
:104900001037BD4680BD00BFF401002080B586B0E1
:1049100004AF00F0ECFF00F08FF800F0A5FA00F013
:104920007DFA00F0D1F800F0EDF800F017F900F092
:10493000A5F900F013FA00F041FA314B02938023FD
:1049400001934FF0904300932E4B2F4A2F4930484C
:10495000FCF77CFF08232F4A2F492D48FFF7E2FE82
:104960002B48FCF7E3FD2A48FDF70BFA2B4806F02D
:10497000D9F82B48FCF71EFB294BD3ED007AFCEE4F
:10498000E77AC7ED017A3B79DAB2264B1A70244BED
:10499000D3ED017AFCEEE77AC7ED017A3B79DAB222
:1049A000214B1A701F4B1B7819461F4B1B781A4658
:1049B0001E4806F031F84FF47A7000F0D1FF00F095
:1049C000C3FA03461A4A1360194B1B681946194863
:1049D00006F022F8164B1B681A460D4BC3F8742ECE
:1049E000104B1B781A460A4BC3F8782E0E4B1B78D7
:1049F0001A46074BC3F87C2E0548FCF7EFFFB5E7D6
:104A0000000100207802002070010020F401002045
:104A100008030020B814002030D4000838D400085F
:104A2000BC140020C4140020C51400204CD400087D
:104A3000C814002070D4000880B596B000AF07F10C
:104A4000140344220021184605F0FEFE3B460022D6
:104A50001A605A609A60DA601A614FF4007001F0CF
:104A600009FF0346002B01D000F036FB0A237B61CF
:104A70004FF480733B6210237B620123BB620023EF
:104A8000FB6307F11403184601F092FF0346002B65
:104A900001D000F021FB0F233B6001237B6000234A
:104AA000BB600023FB6000233B613B4600211846AE
:104AB00002F092FB0346002B01D000F00DFB00BF7B
:104AC0005837BD4680BD000080B500AF0B4B0C4A87
:104AD0001A600A4B06225A60084B40F6FF72DA60F1
:104AE000064B40F6FF729A60044801F07EFC0346D4
:104AF000002B01D000F0F0FA00BF80BDB80000200C
:104B00000030004080B500AF124B134A1A60114BC1
:104B100000225A600F4B00229A600E4B4FF6FF7234
:104B20005A610C4B00221A620A4B00225A62094B4E
:104B300000229A62074B0022DA62064B00221A63B7
:104B4000044801F0B1FC0346002B01D000F0C4FA88
:104B500000BF80BDC8000020007C004080B592B03E
:104B600000AF07F1340300221A605A609A60DA60DD
:104B70001A6100233B633B1D2C220021184605F0DF
:104B800063FE3C4B3C4A1A603A4B00225A60394B58
:104B90007F229A60374BFF22DA60364B00221A617F
:104BA000344B00225A61334B00229A61314B002270
:104BB000DA61304803F04EF80346002B01D000F0D4
:104BC0008BFA002387F83430002387F83530002330
:104BD00087F8363000233B6400237B6407F13403FD
:104BE00001221946234803F0B0F80346002B01D0F8
:104BF00000F072FA012387F83030012387F8313052
:104C0000012387F83230002387F8333007F130036F
:104C100001221946174803F035F90346002B01D04D
:104C200000F05AFA00233B7100237B710023BB7113
:104C30000023BB6000233B6100237B610023BB6139
:104C400000233B6200237B62012387F828304FF466
:104C50008073FB623B1D01221946064803F09AF956
:104C60000346002B01D000F037FA00BF4837BD469D
:104C700080BD00BF000100200028004080B58CB03E
:104C800000AF07F1200300221A605A609A60DA60D0
:104C900007F1140300221A605A609A603B1D00223B
:104CA0001A605A609A60DA602B4B4FF080421A60AB
:104CB000294B0F225A60284B00229A60264B002273
:104CC000DA60254B00221A61234B00229A612248A8
:104CD00003F0AEFB0346002B01D000F0FDF94FF4CA
:104CE00080533B6207F1200319461B4803F097FEEF
:104CF0000346002B01D000F0EFF9174803F073FCD6
:104D00000346002B01D000F0E7F900237B6100236C
:104D1000FB6107F1140319460F4804F07BF90346C1
:104D2000002B01D000F0D8F900237B600123BB6089
:104D30000023FB6000233B613B1D0022194606480F
:104D400003F0D1FD0346002B01D000F0C5F900BFF0
:104D50003037BD4680BD00BF2401002080B500AFC4
:104D6000144B154A1A60134B4FF4E1325A60114B41
:104D700000229A600F4B0022DA600E4B00221A616B
:104D80000C4B0C225A610B4B00229A61094B0022FA
:104D9000DA61084B00221A62064B00225A6205486B
:104DA00004F0BCF90346002B01D000F095F900BFD8
:104DB00080BD00BF700100200038014080B500AF09
:104DC000144B154A1A60134B4FF4E1325A60114BE1
:104DD00000229A600F4B0022DA600E4B00221A610B
:104DE0000C4B0C225A610B4B00229A61094B00229A
:104DF000DA61084B00221A62064B00225A6205480B
:104E000004F08CF90346002B01D000F065F900BFD7
:104E100080BD00BFF40100200044004080B582B096
:104E200000AF104B9B6C0F4A43F0010393640D4B92
:104E30009B6C03F001037B607B68002202210F2042
:104E400000F06AFE0F2000F083FE002200211020F7
:104E500000F062FE102000F07BFE00BF0837BD4668
:104E600080BD00BF0010024080B588B000AF07F1E0
:104E70000C0300221A605A609A60DA601A61304BA3
:104E8000DB6C2F4A43F00103D3642D4BDB6C03F042
:104E90000103BB60BB682A4BDB6C294A43F0020369
:104EA000D364274BDB6C03F002037B607B6800223A
:104EB000A0214FF0904001F05DFA1023FB60002329
:104EC0003B6102237B6107F10C0319464FF09040D0
:104ED00001F0CEF8A023FB6001233B6100237B613E
:104EE0000023BB6107F10C0319464FF0904001F01D
:104EF000BFF84023FB6000233B6100237B6107F187
:104F00000C0319464FF0904001F0B2F80123FB600A
:104F10004FF488133B6100237B6107F10C031946B2
:104F2000084801F0A5F800220021062000F0F4FD59
:104F3000062000F00DFE00BF2037BD4680BD00BF3B
:104F40000010024000040048B0B582B000AF00225B
:104F500020214FF0904001F00DFA032000F072F88C
:104F6000012220214FF0904001F004FA0A2000F0C5
:104F700069F8002220214FF0904001F0FBF900BFBA
:104F800040214FF0904001F0DDF90346002BF7D0AF
:104F900000237B6005E07B6801337B60022000F02A
:104FA00051F840214FF0904001F0CCF90346012B1D
:104FB000F1D07B6807EE903AF8EE677A9FED1E7AA3
:104FC00077EE877AB0EE087A67EE877A17EE900A66
:104FD000FBF7BAFA16A3D3E90023FBF70DFB024651
:104FE0000B4614461D46154B1846FBF7ADFA024614
:104FF0000B4620462946FBF7FFFA02460B461046B1
:1050000019464FF000024FF08043FBF71FFC0246A9
:105010000B4610461946FBF701FD0346084A13608C
:10502000074B1B6818460837BD46B0BDAFF300807C
:10503000666666666666064000000000287E0C3DD7
:10504000C814002080B483B000AF78607B68012B67
:1050500001D802237B604FF080427B68013BD36222
:105060004FF0804301225A614FF080431B694FF09B
:10507000804223F0010313614FF080431B684FF01F
:10508000804243F00103136000BF4FF080431B696F
:1050900003F00103012BF8D14FF080431B694FF05F
:1050A000804223F00103136100BF0C37BD465DF859
:1050B000047B704780B582B000AF78607B681B6866
:1050C000044A934201D100F02BFC00BF0837BD46D3
:1050D00080BD00BF002C014080B400AF72B600BF9D
:1050E000FEE7000080B483B000AF0F4B1B6E0E4A8A
:1050F00043F0010313660C4B1B6E03F001037B604E
:105100007B68094B9B6D084A43F080539365064BBF
:105110009B6D03F080533B603B6800BF0C37BD467E
:105120005DF8047B704700BF0010024080B598B066
:1051300000AF786007F10C0354220021184605F0F7
:1051400083FB7B681B68154A934222D14FF400739E
:10515000FB6000233B6407F10C03184602F092FA4F
:105160000346002B01D0FFF7B7FF0D4B9B6D0C4A98
:1051700043F0004393650A4B9B6D03F00043BB6013
:10518000BB6800220021412000F0C6FC412000F055
:10519000DFFC00BF6037BD4680BD00BF007C004023
:1051A0000010024080B598B000AF786007F10C03A2
:1051B00054220021184605F047FB7B681B68134A00
:1051C00093421FD14FF40033FB604FF40073FB6533
:1051D00007F10C03184602F055FA0346002B01D0E4
:1051E000FFF77AFF0A4BD3F89030094A43F40043A3
:1051F000C2F8903000220021292000F08DFC2920E7
:1052000000F0A6FC00BF6037BD4680BD002800400E
:105210000010024080B58AB000AF786007F1140337
:1052200000221A605A609A60DA601A617B681B6813
:10523000B3F1804F30D11A4B9B6D194A43F00103F3
:105240009365174B9B6D03F001033B613B69144B66
:10525000DB6C134A43F00103D364114BDB6C03F0A6
:105260000103FB60FB6801237B610223BB61002318
:10527000FB6100233B6201237B6207F114031946A3
:105280004FF0904000F0F4FE002200211C2000F0BE
:1052900043FC1C2000F05CFC00BF2837BD4680BDED
:1052A0000010024080B5A0B000AF786007F16C0339
:1052B00000221A605A609A60DA601A6107F11803D6
:1052C00054220021184605F0BFFA7B681B68814A0A
:1052D00093427CD10123BB610023BB6307F1180318
:1052E000184602F0CFF90346002B01D0FFF7F4FE79
:1052F000794B1B6E784A43F480431366764B1B6EE2
:1053000003F480437B617B69734BDB6C724A43F02F
:105310000103D364704BDB6C03F001033B613B6919
:105320004FF40073FB6602233B6700237B67032374
:10533000BB670723FB6707F16C0319464FF09040EA
:1053400000F096FE4FF48063FB6612233B67022356
:105350007B670323BB670723FB6707F16C031946D1
:105360004FF0904000F084FE5C4B5D4A1A605B4B4E
:1053700002225A60594B00229A60584B0022DA6090
:10538000564B80221A61554B00225A61534B002222
:105390009A61524B2022DA61504B4FF480521A62CC
:1053A0004E4800F0E3FB0346002B01D0FFF794FECC
:1053B0007B684A4A1A67494A7B6893620022022145
:1053C000252000F0A9FB252000F0C2FB7DE07B68D2
:1053D0001B68444A934278D10223BB610023FB63DC
:1053E00007F11803184602F04DF90346002B01D0CF
:1053F000FFF772FE384B9B6D374A43F400339365D9
:10540000354B9B6D03F40033FB60FB68324BDB6C68
:10541000314A43F00103D3642F4BDB6C03F00103EB
:10542000BB60BB680423FB6602233B6700237B67EA
:105430000323BB670723FB6707F16C0319464FF093
:10544000904000F015FE0823FB6602233B67022311
:105450007B670323BB670723FB6707F16C031946D0
:105460004FF0904000F004FE1F4B204A1A601E4B84
:1054700002225A601C4B00229A601B4B0022DA6009
:10548000194B80221A61184B00225A61164B0022D8
:105490009A61154B0022DA61134B00221A621248FE
:1054A00000F064FB0346002B01D0FFF715FE7B687C
:1054B0000D4A1A670C4A7B6893620022002126205D
:1054C00000F02AFB262000F043FB00BF8037BD46DA
:1054D00080BD00BF0038014000100240780200206B
:1054E0005800024000440040C00200206C0002400E
:1054F00080B58CB000AF7860002387F82F302E4B3A
:105500001B6E2D4A43F4006313662B4B1B6E03F492
:105510000063BB60BB6807F10C0207F11003114682
:10552000184602F01DF802F005F8B862BB6A234A7B
:10553000A2FB03239B0C013B7B62214B214A1A6097
:105540001F4B40F2E732DA601D4A7B6A53601C4B06
:1055500000221A611A4B00229A60194B00229A61AC
:10556000174802F065FF034687F82F3097F82F3071
:10557000002B1BD1124802F0B3FF034687F82F30EF
:1055800097F82F30002B11D1192000F0E1FA7B6839
:105590000F2B08D800227968192000F0BDFA0A4ABA
:1055A0007B68136002E0012387F82F3097F82F30D3
:1055B00018463037BD4680BD0010024083DE1B43D5
:1055C000CC140020002C01402800002080B400AF43
:1055D000064B1B68DA68054B1B6822F00102DA6093
:1055E00000BFBD465DF8047B704700BFCC140020AF
:1055F00080B400AF064B1B68DA68054B1B6842F0AD
:105600000102DA6000BFBD465DF8047B704700BF51
:10561000CC14002080B400AFFEE780B400AFFEE7FA
:1056200080B400AFFEE780B400AFFEE780B400AF07
:10563000FEE780B400AF00BFBD465DF8047B704755
:1056400080B400AF00BFBD465DF8047B704780B4F6
:1056500000AF00BFBD465DF8047B704780B400AF6B
:1056600000BFBD465DF8047B704780B500AF0120E8
:1056700000F098FE00BF80BD80B500AF024800F08A
:105680000CFC00BF80BD00BF7802002080B500AFD9
:10569000024800F002FC00BF80BD00BFC002002035
:1056A00080B500AF024802F0FFFF00BF80BD00BF21
:1056B000CC14002080B500AF034800F0E5FE03489D
:1056C00002F0F2FF00BF80BDB800002024010020DE
:1056D00080B500AF024803F0B3FE00BF80BD00BF3D
:1056E0007001002080B500AF024803F0A9FE00BFA2
:1056F00080BD00BFF401002080B500AF01F09CF830
:10570000024802F083FD00BF80BD00BF0001002001
:1057100080B500AF024800F069FF00BF80BD00BF48
:10572000C800002080B400AF01231846BD465DF8D4
:10573000047B704780B582B000AF7860396005F0B7
:1057400029F8034616221A604FF0FF33184608372F
:10575000BD4680BD80B582B000AF78604FF0FF31AC
:105760007868FFF7E7FFFEE780B586B000AFF86026
:10577000B9607A6000237B610AE0AFF300800146E4
:10578000BB685A1CBA60CAB21A707B6901337B616C
:105790007A697B689A42F0DB7B6818461837BD4609
:1057A00080BD80B483B000AF78604FF0FF331846FF
:1057B0000C37BD465DF8047B704780B483B000AF02
:1057C000786039603B684FF400525A6000231846F5
:1057D0000C37BD465DF8047B704780B483B000AFE2
:1057E0007860012318460C37BD465DF8047B70478E
:1057F00080B485B000AFF860B9607A6000231846C5
:105800001437BD465DF8047B7047000080B586B054
:1058100000AF7860144A154BD31A7B617B693B61FA
:10582000134B1B68002B02D1114B124A1A60104B0C
:105830001A687B6813443A699A4207D204F0AAFFB7
:1058400003460C221A604FF0FF3309E0084B1B6837
:10585000FB60074B1A687B681344054A1360FB68BA
:1058600018461837BD4680BD000001200004000026
:10587000181500203015002080B400AF064BD3F877
:105880008830054A43F47003C2F8883000BFBD4633
:105890005DF8047B704700BF00ED00E0DFF834D016
:1058A000FFF7EAFF0C480D490D4A002302E0D458E7
:1058B000C4500433C4188C42F9D30A4A0A4C00235A
:1058C00001E013600432A242FBD304F069FFFFF74A
:1058D0001DF8FEE7000001200000002094000020D9
:1058E00028D700089400002030150020FEE780B57E
:1058F00082B000AF0023FB71032000F002F90F20FB
:10590000FFF7F6FD0346002B02D00123FB7101E0F7
:10591000FFF7E8FBFB7918460837BD4680BD00005D
:1059200080B400AF064B1B781A46064B1B68134425
:10593000044A136000BFBD465DF8047B704700BF9A
:105940002C0000201C15002080B400AF034B1B6806
:105950001846BD465DF8047B704700BF1C1500204B
:1059600080B584B000AF7860FFF7EEFFB8607B6869
:10597000FB60FB68B3F1FF3F05D00A4B1B781A466A
:10598000FB681344FB6000BFFFF7DEFF0246BB6805
:10599000D31AFA689A42F7D800BF00BF1037BD4645
:1059A00080BD00BF2C00002080B485B000AF7860BF
:1059B0007B6803F00703FB600C4BDB68BB60BA68D5
:1059C0004FF6FF031340BB60FB681A02BB6813432A
:1059D00043F0BF6343F40033BB60044ABB68D36049
:1059E00000BF1437BD465DF8047B704700ED00E052
:1059F00080B400AF044BDB681B0A03F007031846B2
:105A0000BD465DF8047B704700ED00E080B483B0D4
:105A100000AF0346FB7197F90730002B0BDBFB79D6
:105A200003F01F02074997F907305B09012000FACC
:105A300002F241F8232000BF0C37BD465DF8047B1D
:105A4000704700BF00E100E080B483B000AF0346C0
:105A50003960FB7197F90730002B0ADB3B68DAB23B
:105A60000C4997F907301201D2B20B4483F8002396
:105A70000AE03B68DAB20849FB7903F00F03043B04
:105A80001201D2B20B441A7600BF0C37BD465DF846
:105A9000047B704700E100E000ED00E080B489B0D5
:105AA00000AFF860B9607A60FB6803F00703FB6140
:105AB000FB69C3F10703042B28BF0423BB61FB6907
:105AC0000433062B02D9FB69033B00E000237B6112
:105AD0004FF0FF32BB6902FA03F3DA43BB681A40A6
